:020000040000FA
:1000000007309F00F801A52DFE00030EFF008312AC
:100010008C016400BA0F2228BB0A12303B02F81D83
:10002000031D22281010503085008601831686019A
:100030006300063086008312851DAD2D8618061DCF
:10004000AD2D16283A0DC9003B0DCA00C90DCA0DC9
:10005000C90DCA0D06090639AD00AD1C2D1933288E
:10006000E930BC0542283C1A3928F730AE002D088B
:10007000BC04AE0A03302E02031D41282D08BC0427
:10008000AE013C16851D4728BC113C104A2809309A
:10009000BC1DBC043C08183903195128BB01BA0126
:1000A000682270306F05031DEF1B5C28050892392C
:1000B0001138C61DFE398500C60A0508AD00AD1A07
:1000C0007328F81B6628AD1D7828F81703391038F7
:1000D000C618461D8038850003304A0203183A1EB0
:1000E0007828742278280339903885003A1E6822CF
:1000F0007F0E8300FE0E7E0E09008A0182071434F3
:1001000003341434013428340234143401342834D0
:10011000013428341F3400304C078A0093304B07D9
:1001200003188A0A82002C34523445344334543440
:100130004F34203443346F3470346934653472344E
:100140008034763465347234733469346F346E3489
:10015000203435342E34323436342034723475340D
:1001600073344734A0346134BF346134703465343F
:10017000C734BA3470346134B7347034C734B634E9
:100180006534BD34613421341E34A8347034B8343D
:10019000BB346F34B634B834BF3465342034BA3429
:1001A000BB34C634C0341D344B34BB34C634C034C5
:1001B0002034BE3470346F34C034B834BF3461344A
:1001C000BD341E344F34C134B834B234BA3461341F
:1001D0002034C034BF346534BD34B834C73421341E
:1001E0003934A8347034B834BB346F34B634B834CE
:1001F000BF346534B934B7346134B4346F34BF3488
:100200006F34B334BA3479341E34A4346134BE3418
:10021000B8346334C4342034523457342D34313438
:100220003934393430340034A4346134BE34B83411
:100230006334C4342034523457342D343134393497
:10024000393430342E3432341E34A4346134BE3464
:10025000B8346334C434203454344D342D343234FF
:100260003034303434340034A4346134BE34B834DF
:100270006334C4342034B7346134B33465347034F7
:10028000C1346534BD3461342C34A4346134BE349B
:10029000B8346334C434203454344D342D343034C1
:1002A00031341E344F34C134B834B234BA346134CA
:1002B0002034B7346134BE34B8346334B8342134B4
:1002C00064344B34BB34C634C034AB34443461344E
:1002D0006C346C34613473342D3431343934393402
:1002E0003034C73454344D342D3432343034303417
:1002F00033349E344D346534BF346134BA346F3492
:10030000BC342D3454344D343234303430343234FF
:100310009E34433479346634723461346C3420341E
:10032000443443342D343234303430343034C734F0
:10033000523457342D343134393439343034B934BB
:10034000523457342D3431343934393430342E3436
:100350003234C73454344D342D34323430343034A4
:1003600034343934A4346134B4346F34BF346F342A
:10037000B334BA346134D53454344D342D3430343C
:1003800031340D342D342D342D3420344434613443
:100390006C346C346134733420342D342D340D348A
:1003A0002D342D3420344D346534BF346134BA34A7
:1003B0006F34BC3420342D342D340D342D342D3491
:1003C0002D342034433479346634723461346C34DF
:1003D00020342D342D349E34BD34653420347034B3
:1003E00061346334BE346F34B734BD346134BD34EA
:1003F00061342134B834A101062A800E0F30000583
:10040000093C031CF93E393CA101A115A10AA00039
:100410000B1D082A1122200E1122D83081000B1149
:100420000800F03921078600FE3986000800A10087
:10043000CB01CC011F2A013ECB070318CC0A8B202D
:10044000A0000F3903191030A300A10B1B2A200EA6
:100450000739A200200C3F05803EBD19103EFB214C
:10046000F030C700A207220847022030031C402AB0
:10047000A3080319402ACB0A0319CC0A8B20A30333
:100480000422C70F332A0800C030FB2177303D1803
:1004900067308400FD21FD218403841D4A2A080061
:1004A000FC01FB00F6307B07FC0A0318512AFC0311
:1004B0007C0EFB078E30FB210230C700FB0E0F3095
:1004C0007B05303EA71A78300422C70B5E2A08004D
:1004D0003D1E08003D12F830BC051030CE001C3027
:1004E000FB21CE0B6F2A08003D1A08003D16103084
:1004F000CE001830FB21CE0B792A0800A800802AF4
:10050000A80B7F2A08000030AC0000307E220030AB
:100510007E22AC0B852A08008B13FC010508833969
:100520007C189038850064307E22FC0B8E2A0900EE
:10053000A80005089039280485000800C030FB2178
:100540001030FC00DF300422FC0BA22A0800083027
:10055000DA007B087A06D900590C18300318FA061D
:10056000FA0CFB0CDA0BA92A08007B140130BB2A19
:10057000FF30FB000830A9008B1383160511C02A39
:10058000C12A7B180515FB0C8312C62AC72AFB1348
:100590000519FB1708307E228316051583120430D7
:1005A0007E22A90BBD2A7B0809008B138316051137
:1005B000D92ADA2A7B1805150A307E2205158312FE
:1005C000023084220900703084000008FB002618E5
:1005D000FB090830A900D522FB0C05302902FF30A9
:1005E00003190422A90BEB2AFF300422840A841D7C
:1005F000E52AFF22781CD92F08007816002B7812E4
:1006000078108B13051D09008316051196307E2284
:100610000515781E122B00000000000005110B309C
:100620007E22051583120D307E22051D781464305C
:100630007E22051D78100900FF22781C0800BA01EF
:10064000BB01682214308422FF2208007815FA01C9
:100650003330B92270308400B822041280000416AE
:100660000002031D7811A722840A841D2C2B080088
:100670008316781703109B009B0D9B0D9B0DFA01B1
:10068000F8167812C4017811703084001C141A080E
:10069000781F532B813C031D512B0330C400803045
:1006A0007815813C7813031D7816FB0079198000BA
:1006B0000002031DF8128925A722840A9B0A841DC3
:1006C000462B7817FA080319781E781303196C2B38
:1006D00008309B0278193F2B4408031D712B7819B1
:1006E000781383127919EF006F0603390319781F05
:1006F000F81279192C250800F901AA012A083823D3
:10070000781F842BF9140800AA0AAA1E7E2B080061
:10071000A70179112708A71A08003823F81A08003A
:10072000A70A8A2B3330B92270308400EF01F81405
:100730007812FA01B82280008008031D7816A722DB
:10074000840A841D9A2BFA080319781EF8100800F1
:100750001D30B9227B14D522FF22781C08001E30E0
:10076000B922B522FB1BB62BA6140800FF22781C69
:100770000800D230B9227430B92201308422FD221F
:10078000B430B922B522FB1BD92BFF22781C0800FC
:10079000F030B922B522B5227810FB0DFB06FB1F05
:1007A0000800A615FB0DD522B522FB1BBD1778143A
:1007B0000800FF22781C0800CC30B922AA30B922E8
:1007C0000030B9220030B922B8229C3C031DF32B23
:1007D000FF223530B922B8222617FF3C031DA60E92
:1007E000083084220800FF22781C0800D130B9228A
:1007F0007B14D522FF22781C0800B530B922B5221F
:10080000FB1B0B2CFF22781C0800D130B9227B1077
:10081000D52226140800A61708008C1078128C1810
:1008200008009F1F0F2C110A91018C1808009F1BB4
:10083000152C8316781B05118312110211089101E2
:10084000FB0D781608000830C20091010D24781EB7
:100850000800C20B262C08008B137810F8127813AE
:100860002A309F0005309200831680309F0083124B
:10087000232483161F089F0A9F191F1D422CF81E50
:10088000522C4A2C781E482CF81EFD00F816372CE6
:10089000F81E372CFC007D08FC027C0C7F397D079C
:1008A0009F00781483169F13831207309F00121144
:1008B00009002C24781C0800BA01BB0168221430FE
:1008C00084222C2408008B1383169F1783120A306E
:1008D0009F001215C401C4189E2C9F1291010D2473
:1008E0000310C0010318792C02304007C1002330E7
:1008F000C2000D24781E522CC0004102C20B722C83
:10090000441808000430C30054308400FB01FB305D
:10091000A9000830A9070D24781E522CA90B8B2C96
:100920007B094319962C8002031D9E2C80008403B2
:10093000041D892CC30B842C441408009F164630D8
:10094000C200FF30FB000D24C203031D781E522C91
:100950000F30FB057B0BA32CC41808000430C30028
:10096000573084000930C7000430A900FB010D2472
:10097000781E522CA90BB72C7B0E4319C22C800277
:10098000031D522C80008403C70BB42CC30BB02C66
:10099000C4140800F810EF0163245224440803191A
:1009A0000800EF002525503084006F18F72C103018
:1009B0004F02031D08000008903E0319EB2CC03EB7
:1009C0000319EA2CE03E0319E92CF03E031D080050
:1009D000403E403E403E0310F20CF10CF20CF10C94
:1009E000F207840A841DDB2C0130F300122DFA304B
:1009F0005402031D08000730A9000008FB00FB0C8F
:100A00007B06A90BFF2C0139041C8418092D8006D4
:100A10000315031D08000008840A84168000841250
:100A2000041DFB2C0130F0001725F814080070306D
:100A300084000730C700FA010008FB00A722840ADF
:100A4000C70B1C2D7A0880000800703084008001DC
:100A5000840A841D272D08006F302F2D2F3084002D
:100A60003D170008FC00403084067C088002031D0E
:100A70003D13800040308406840A841D312D080017
:100A800025250830C700471CC7184E2D313047199F
:100A9000013E84000008FB00EF1AFB094708EF1A2B
:100AA000013EE03E8400840C03307B05C200FB0C59
:100AB000FB0CFC010314FC0CC20A421D5B2D471CFD
:100AC000FC0E7C088007C70B432D0730EF1A083C4B
:100AD000F007080025250430C700343084000009E1
:100AE000FB000408A43C8400C201FB0D800CC20A78
:100AF000421CC218752D840AC21D752D0408A53C20
:100B00008400C70B6F2DF40EF030F4040B30F004AA
:100B10000800773004020319080070300402031D36
:100B2000942D7B0BC40108000418841C992D7B0BA9
:100B3000C4100730C2007B08FC00FC0D7C06C20B11
:100B40009D2D8039031D441008007C23F918F814EA
:100B500079152A083823051FF8159330850086017A
:100B600083165F3081002C308500063086000C141F
:100B70008312383084008001840A041FBB2DFA01DF
:100B80003F17C6011014C0308B001430842231305E
:100B90001322023084223130132214307E2231306D
:100BA000132208307E2221301322D83081000B110D
:100BB0002830FB210C30FB210630FB2101301722AD
:100BC00002301722BD150330172204301722BD1141
:100BD000CB018B20FB00A722CB0A0319CC0A4C18AF
:100BE0004B1FE92DCB1ACB1DE92D832280308422A7
:100BF00001303C027A08031C031DF52DEF138823F6
:100C0000F81C0C2E1130982244226F0803391A3E2A
:100C10001722270A5022112E103098229E220530CA
:100C20001722C501BD18C503BD10F830BC053C181E
:100C30006D2E06303C05031DF91C2F2EA71A242EFD
:100C4000F81C262E3C19A70ABC18A7030F30A705CD
:100C5000791527083823781F222EF814002EC5088E
:100C60000319362E01308422C50B172E5924781C07
:100C70003E2ECA24F818462E9E225E2E1C23781C77
:100C8000172E9223F818462E44225E2E0630172285
:100C900044226F0AC500133098226F0A450234308F
:100CA000031D842203198C2211309822463084229D
:100CB000C50B4B2E2C2588238322622E10309822C0
:100CC00007301722503084222C247818392EFF2226
:100CD0007818412EF81C0E2E052EF830BC05A60102
:100CE000C401BD13BD14EF1713309822083017222A
:100CF00009301722BC197F2EF818B82E0C2E592453
:100D0000781C882E63245224C40803197A2E8E2E50
:100D10001C23781C7A2EA823781C7A2E0F302605E7
:100D2000031D9E2E103017221130261B123044183E
:100D30001330C418143017229130AD2E18301722FA
:100D4000260C0739153E1722CA30FB214130BD1B46
:100D50000422050893391038033A85006430842250
:100D60002C24781CFF22781C6D2EF818BC19A92E93
:100D7000F830BC05A6080319EC2E261FA61BDA2E98
:100D80001C23781CEC2E10309822260C07390A3EC2
:100D900017228E30FB214130BD1B04229E22C03021
:100DA000FB2170308400261CA618B22F2619BD2FF7
:100DB0007F2F5224183017221D3017229130E42E35
:100DC000050893391038033A8500643084222C24B6
:100DD000781CFF227818E02E133098220830172252
:100DE00009301722A601C401BD133C1C272F413036
:100DF0006F0503190B2F7108FC007408F1007C08C3
:100E0000F4007208FC007308F2007C08F300172558
:100E10004130EF06FE2DEF1C1D2FEF106F167208EC
:100E2000F039D03CF21B7216031DF21A7215F2193A
:100E30007214F21871171725FE2D6F1E242F6F12D2
:100E4000EF1640251725FE2DEF1A2E25FE2DBC1C72
:100E50003C19FE2D5924781C792F6324440803196A
:100E6000D92E103098223830A900FD010C30FC003A
:100E70007C03FC007D20C3000330C41C431E0030F3
:100E8000C30791014303031978170D247813781EC3
:100E9000D92EC30B422F7C037D207D077E22831633
:100EA0000515831201307E22FC0B382F6B24781E2F
:100EB000602FA91C291C5D2FFD03A90B362FD92EED
:100EC00023308422FD22781CDA2ECB30441CCA3019
:100ED000B9227B10D522FD22781CDA2EB430441CB6
:100EE000B630B922B522FB1BDA2EC523781CDA2EC8
:100EF000B82E1C237818A823781CF22EB82EEF18D1
:100F000040256F186A25C130B9227B14D522FF22F3
:100F1000781CD92FC530B922E322EF1C6F18952F0A
:100F2000C130B9227B10D522D62F26232E25781D3D
:100F3000D92FFF22781CD92F1A306F0717226F087C
:100F4000CC3CB9227B14D5220E308422FF2264309F
:100F500084222C24781CD92FCA242E25F8143D1F56
:100F6000D92FDC2FD530B922E322D130261C1D30F9
:100F7000B9222608FB00D522D62F3C30B9220030FA
:100F8000B9220030B9220008B922B82282307E226C
:100F9000B52214308422B8220002031DD92FFF305D
:100FA0000422FF300422840A841DC32F7815FF22F7
:100FB000781C7811781926230F30781DE62F12300F
:100FC00098228C2200307E228C220D3017221E3077
:100FD000FC00123098220A3084221030FC0B781D5D
:100FE00098220F3084227C08031DE92F2C24781CC2
:0A0FF000FF22781CFE2D8322F62F4D
:084000000000050002000600AB
:02400E00143F5D
:00000001FF
