:020000040000FA
:100000000130F9008A15E52AAA00030E8301CA000F
:10001000CA0E0A08DB008A018C016400BA0F362878
:10002000BB0A12303B02F81D031D36281010BD1EFE
:1000300025286E08EF006030840000080416800058
:100040000412840A0418841D1D285030850086017E
:100050008316860163000630860083128A15851D8B
:10006000F72A8618061DF72A8A1128283A0DC80093
:100070003B0DC900C80DC90DC80DC90D4A0DFB00C7
:1000800006090639AD00031D48281130BC05632858
:100090003C103C1E3C1B6328063C031D5428593071
:1000A000BC054830BC046328BC1A5B28F730AE009E
:1000B00020302D07BC04AE0A03302E02031D632836
:1000C0002D08BC04AE01851D68286E30BC056D2866
:1000D0007130BC0511300319BC0403197228BB012F
:1000E000BA01962538306F05031DEF1B7D280508E2
:1000F00092391138C61DFE398500C60A0508AD00C3
:10010000AD1A9428F81B8728AD1D9928F8170339D4
:100110001038C618461D8038850003304902031880
:100120003A1E9928A22599280339903885003A1E4D
:10013000962503303A0503193D1DA82802304902CF
:100140000C303A050318031DA728DE20A828E2205A
:100150005F08031D063C03193D1FC728C50BC728B0
:100160000530C500C530391C85303A250430CC0037
:100170000A30FE000F30CB0510305F19103ECB0463
:1001800002214325CB0AFE0BBA280930CB028A157F
:100190002F2183015B088A004A088300AA0E2A0ED9
:1001A000090082071434033414340134283402342F
:1001B000143401342834013428341F340230A500AB
:1001C0000830E5280130A5001030A40040303A2561
:1001D0001030CD0000308A004D030C398207380CF6
:1001E0003805B800FE28380D2504B800FE28380D63
:1001F0003805B800FE28380C2404B8004325CD0B80
:10020000EC28080001304C078A000A304B0703181D
:100210008A0A82002C3452344534433454344F34E7
:10022000203443346F34703469346534723480342C
:10023000763465347234733469346F346E342034F8
:1002400036342E34323433342034723475347334CB
:100250004734A0346134BF34613470346534C734FA
:10026000BA3470346134B7347034C734B63465345A
:10027000BD346134213438342034443461346C3436
:100280006C34613473342034293420344D34653473
:10029000BF346134BA346F34BC3420343834203441
:1002A000433479346634723461346C3420349E348F
:1002B000BD3465342034703461346334BE346F34FB
:1002C000B734BD346134BD34613421340D34483425
:1002D0006534B33465347034BD346134C73420348C
:1002E00063347234633421341E34A8347034B83427
:1002F000BB346F34B634B834BF3465342034BA34C8
:10030000BB34C634C0341D344B34BB34C634C03463
:100310002034BE3470346F34C034B834BF346134E8
:10032000BD341E344F34C134B834B234BA346134BD
:100330002034C034BF346534BD34B834C7342134BC
:10034000543420344D3432342034D9346C346F3446
:100350006134643420346134753474346F34D93486
:100360006C346F3461346434203431342D3431349E
:100370003634DA346C346F346134643420343134DC
:1003800037342D3433343234D934733461347634E1
:100390006534203431342D3431343634DA34733426
:1003A0006134763465342034313437342D34333489
:1003B0003234BA340034B334BA34BB340134203468
:1003C000B334C334BA34BB34BA34B334BA34BB34C0
:1003D00020340034B334C334BA34BB34013454341D
:1003E0002034433432342034DA34C034BF346534FA
:1003F000BD34B83465342F34B7346134BE34D934A5
:1004000063346F34783470346134BD34B834BF34FD
:10041000C434D83470346534E3346134BA34BF340E
:100420006F347034D934633470346134B334BD34D0
:100430006534BD34B8346534D7347934E334613449
:10044000BB34B834BF34C434D834BF3465346334B7
:10045000BF34203472342F347734DA34C534BA34AC
:100460006334BE346F347034BF342F34B834BC348A
:10047000D9346334723463342D3470346534B63413
:10048000B834BC34D534B334C334BA34BB342E346A
:1004900080340034443461346C346C3461347334EB
:1004A000013420344D346534BF346134BA346F3490
:1004B000BC348034443461346C346C34613473340F
:1004C000203400344D346534BF346134BA346F3471
:1004D000BC3401348F340034443461346C346C34B3
:1004E00061347334013420344334793466347234E3
:1004F00061346C349F34443461346C346C34613412
:1005000073342034003443347934663472346134C3
:100510006C3401349D340034443461346C346C34B4
:100520006134733401342034523446344934443411
:10053000AD34443461346C346C34613473342034FD
:10054000003452344634493444340134373420348E
:100550004334433444343234303420341E34A434ED
:100560006134BE34B8346334C43420345234573424
:100570002D3431343934393430340034A4346134D6
:10058000BE34B8346334C4342034523457342D3438
:1005900031343934393430342E3432341E34A434C6
:1005A0006134BE34B8346334C434203454344D34EC
:1005B0002D3432343034303434340034A4346134A3
:1005C000BE34B8346334C4342034B7346134B33403
:1005D00065347034C1346534BD3461342C34A43492
:1005E0006134BE34B8346334C434203454344D34AC
:1005F0002D34303431343934A8347034B834BB3409
:100600006F34B634B834BF346534B934B734613478
:10061000B4346F34BF346F34B334BA3479344634BD
:100620002034543443343034313420342C34A43422
:100630006134BE34B8346334C43420345434353473
:100640003534353437341E344F34C134B834B234D1
:10065000BA3461342034B7346134BE34B8346334CE
:10066000B83421342934AF34BF346F34BF3420342C
:10067000BA34BB34C634C0349C347934B6346534AF
:100680002034B7346134BE34B83463346134BD349B
:1006900021341E344B34BB34C634C034203463346C
:1006A0006F34B334BE346134E33461346534BF3401
:1006B0002C344B34BB34C634C034B834203470349A
:1006C0006134B734BD34C334653464344B34BB3423
:1006D000C634C03454342034433433342034AB343F
:1006E000443461346C346C34613473342D343134BB
:1006F000393439343034C73454344D342D343234F1
:100700003034303433349F344D346534BF34613445
:10071000BA346F34BC34203454344D342D34323434
:100720003034303432349E34433479346634723465
:1007300061346C342034443443342D343234303416
:1007400030343034C83445346D342D344D34613454
:10075000723469346E340F3443346F347834703407
:100760006134BD34B834BF34C4342034BA34BB34FB
:10077000C634C0343F340D344B34BB34C634C0347B
:100780002034B7346134BE34B83463346134BD349A
:100790003A343834203443346534BA3470346534F0
:1007A000BF3420340D344234C334B2346534703431
:1007B000B834BF3465342034BA34BB34C634C034A2
:1007C0001D34A934E3346134BB34B834BF34C43489
:1007D0002034BA34BB34C634C0343F342B344B34A9
:1007E000BB34C634C03420347934E3346134BB3490
:1007F0006534BD343934A4346134B4346F34BF3417
:100800006F34B334BA346134C734523457342D346E
:100810003134393439343034B934523457342D34D6
:1008200031343934393430342E343234C7345434DA
:100830004D342D3432343034303434344634203472
:1008400052344634493444342034D53454344D344D
:100850002D34303431345634A8346134BC34C73488
:10086000BF34C434BA34B7346134BE346F34BB34AB
:10087000BD346534BD3461342134483442342034CD
:10088000BE346134BC34C734BF34B834BA34BD3438
:100890006534BF342034BA34BB34C634C034653414
:1008A000B93449344234C334BE346F34BB34BD34FC
:1008B000B834BF346534AD34C034BF346534BD346E
:1008C000B83465342034BA34BB34C634C0346134EF
:1008D00021340134DA34033478347834DA342D3482
:1008E0004334523443342D34BA346F34BD34BF34BE
:1008F00070346F34BB34C4343A345734AA346F3450
:100900007034BC346134BF343A34AC3454344D3474
:100910002D3432343034303434342F3432343034B3
:1009200030343334483448346534B3346534703447
:10093000BD34C334B9342B34AB34BF346534BD3427
:10094000B83465342034B2346134B734C33400343D
:10095000AB34BF346534BD34B83465342034B73477
:100960006134B33465347034C1346534BD346F34AC
:100970001E344F34C134B834B234BA346134203404
:1009800045344534503452344F344D3421349E3440
:10099000BF34B834BE342034B7346134B4346F3427
:1009A000BF346F34B334BA34B83421341E34A53470
:1009B0006334BE3470346134B334B834BF34C434B7
:1009C00020346334723463343F343A34A5346334AE
:1009D000BE3470346134B334BB346534BD346F34E9
:1009E000003443346F34783470346134BD3465344A
:1009F000BD34B83465342034BA34BB34C634C03462
:100A00006134BB34BD346534B3346F34B734BC3473
:100A10006F34B634BD346F342134BB346334BF34E7
:100A2000B83470346134BD34B83465342E342E3467
:100A30002E34C834C034BF346534BD34B834653462
:100A40002F34B7346134BE34B8346334C4342E34F4
:100A50002E342E34C534BA346334BE346F3470341B
:100A6000BF342F34B834BC34BE346F347034BF3428
:100A70002E342E34A101452D800E0F300005093C87
:100A8000031CF93E393CA101A115A10AA0000B1DD0
:100A9000472D5025200E5025D83081000B1108001D
:100AA000F03921078600FE3986000800A100CB013D
:100AB000CC015E2D013ECB070318CC0A0221A00019
:100AC0000F3903191030A300A10B5A2D200E07393E
:100AD000A200200C3F05803EBD19103E3A25F030A3
:100AE000C700A207033047072D30031CF91F203031
:100AF000A000220847022008031C862DA308031922
:100B0000862DCB0A0319CC0A0221A3034325C70F64
:100B1000722D0800C0303A2577303D1867308400C8
:100B20003C253C258403841D902D08003D1E0800B3
:100B30003D127030BC051030CE001C303A25CE0B73
:100B40009D2D08003D1A08003D161030CE001830CB
:100B50003A25CE0BA72D08008C10791283128C1821
:100B6000080083169C1FAE2D8312110A9101831277
:100B70008C18080083169C1BB72D791B0511831256
:100B8000110211089101FD0D791608008B137810E0
:100B9000F91279130530920083162A309C008030B8
:100BA0009D0083120830C2009101AC25791EDA2D18
:100BB000C20BD52D83161D089D0A9D191D1DE52DFF
:100BC0009D1CE52DF91EF52DED2D791EEB2DF91E41
:100BD000FF00F916D12DF91ED12DFE007F08FE026F
:100BE0007E0C7F397F079D00781483169D13073094
:100BF0009C008312121109008B1383169D170A3073
:100C00009C0083121215C401C418392E83169C123D
:100C100083129101AC250310C0010318142E023079
:100C20004007C1002330C200AC25791EF52DC0005D
:100C30004102C20B0D2E441808000430C30054308A
:100C40008400FD01FB30A9000830A907AC25791EFE
:100C5000F52DA90B262E7D094319312E8002031D87
:100C6000392E80008403041D242EC30B1F2E441430
:100C7000080083169C1683124630C200FF30FD0028
:100C8000AC25C203031D791EF52D0F30FD057D0B2C
:100C9000402EC41808000430C300573084000930C7
:100CA000C7000430A900FD01AC25791EF52DA90B64
:100CB000542E7D0E43195F2E8002031DF52D8000FA
:100CC0008403C70B512EC30B4D2EC4140800F8101B
:100CD000EF01FC25F525440803190800EF008A15EB
:100CE00027208A11503084006F18962E10304F0242
:100CF000031D08000008903E03198A2EC03E031908
:100D0000892EE03E0319882EF03E031D0800403E68
:100D1000403E403E0310F20CF10CF20CF10CF207D5
:100D2000840A841D7A2E0130F300B12EFA30540269
:100D3000031D08000730A9000008FD00FD0C7D061A
:100D4000A90B9E2E0139041C8418A82E80060315B9
:100D5000031D08000008840A841680008412041D04
:100D60009A2E0130F000F8148A156628FC254408F4
:100D70000319E72E3830A900FF010C30FE007E0376
:100D8000FE00D120C3000330C41C431E0030C30743
:100D90009101430303197917AC257913791EE72EC6
:100DA000C30BC92E7E03D1207F078A150F2183161E
:100DB000051583122F218A11FE0BBF2E0426791EE2
:100DC000EA2EA91C291CE52EFF03A90BBD2EF52533
:100DD0008A1500348A15233027217720CB30441C14
:100DE000CA30CB207D10E7207720781C0034B43047
:100DF000441CB630CB20C7200134BD13BA013D15C9
:100E00007030BC058B13E22039085F02FF005D07DC
:100E10003F13562582303A25313030273F177F0A5D
:100E20005D075625C2303A2532303027B908803068
:100E3000031D403EFE003A25003043257E080F3E4C
:100E40003A2501304325CB010F30C5008B17BC1D5F
:100E5000342F7030BC053D11DF01B9018A1508003F
:100E60007F0743252E30432DBC1C392FDF03B903E8
:100E70003D2F3C1D492FDF0AB90AB9030030B91FC5
:100E8000013EB9005F085E020319DF03031CDF0A9D
:100E9000002F3C1C272F3D118B13DE208B173C1895
:100EA0004F2F8B13E2208B1728308A1527217030A3
:100EB000BC05BD1708006F08EE0070308400000804
:100EC000041280000416840A0418841D5F2FBD16C6
:100ED0000230791C0030DC00013079054D3E56258A
:100EE000F81C6F19772F8A152720F00A66208A11BF
:100EF0008A2580305C043A253C1D8D2F3C11203022
:100F00004325DC0A0230791C00305C1ADC0080309A
:100F10005C043A25DA304325792FBC1CA32FBC1082
:100F20005C0C0739073C703E84005C18800E103062
:100F300080075C18800E791C772F8A1566208A112D
:100F4000781E732F772FBC1DA72F8A15C02E3C1C2F
:100F50007C2F3C104330C400FC01781270308400B8
:100F60000008FD00031D78168A15B12258208A1149
:100F7000840A841DB02FF8107C080319D32F573032
:100F800056250430BC1DC62F8A15C02EBC1C3C192A
:100F9000F22F3C1CC22F8A156620092058300620EB
:100FA000262126218A11781E441BF8144408781E35
:100FB00004300319F22F503056253D15DF011F3044
:100FC000C4182130441B23305F0756257030BC0500
:100FD000BC1DEC2F8A15C02E3C1CF82F4B27440853
:100FE0005F1C0030EF00BD128A154222C621702B13
:100FF000BC1CFC2F5F10DF2F3C1DE82F5F14DF2F80
:101000008A1143252E2F8A113A252E2F8A11562513
:101010002E2F8A118A258A1508008A11C6252E2F9F
:101020008A1167268A15080001388600FE39860075
:1010300008008B138A1196258A150900C0300320F9
:101040001030FE00DF300020FE0B22280800703038
:1010500084008001840A841D29280800FE01FD0007
:10106000F6307D07FE0A03182F28FE037E0EFD07CB
:101070008E3003200230C700FD0E0F307D05303E5C
:10108000A71A78300020C70B3C2808008B13FE01FC
:10109000050883397E189038850064300F21FE0BD7
:1010A00048280900A8000508903928048500080090
:1010B0000830DA007D087C06D900590C1830031876
:1010C000FC06FC0CFD0CDA0B5A280800703084007A
:1010D0000730C700FC0178120008FD00031D7816D8
:1010E0005820840AC70B6C287C08800008007816FA
:1010F0007A28781278108B13051D090083160511C4
:1011000096300F210515781E8C2800000000000085
:1011100005110B300F21051583120D300F21051D10
:10112000781464300F21051D781009007920781C8F
:101130000800BA01BB0119201430272179280D209D
:10114000781C0800BA01BB011920143027210D2892
:101150003330CB2070308400EF01F8147812FC019A
:10116000CA2080008008031D78165820840A841D38
:10117000B028CA20413C03196F17FC08031DC3287F
:10118000781E6F1B0800F810791C6F1508007D147D
:101190000130CD28FF30FD000830A9008B138316E5
:1011A0000511D228D3287D180515FD0C8312D828E7
:1011B000D928FD130519FD1708300F2183160515D1
:1011C000831204300F21A90BCF287D0809008B134F
:1011D00083160511EB28EC287D1805150A300F2120
:1011E00005158312023027210900703084000008A1
:1011F000FD002618FD090830A900E720FD0C053088
:101200002902FF3003190020A90BFD28FF30002020
:10121000840A841DF7287920781CAE2D0800A800C8
:101220001129A80B102908008B138316051196307D
:101230000F210515FB1D25290D300F218312051DDA
:10124000781464300F21051D78108B170030AC0026
:1012500000300F2100300F21AC0B2829080001308D
:101260000F2108000317781703108D008D0D8D0DC9
:101270008D0DFC01F8167812C401F911F9147030C3
:10128000840083160C1483120C08781F52297813DB
:10129000813C03194E29013C031D52294330C400EF
:1012A0008C13F9150C08031D7816FD007A198000BF
:1012B0000002031DF8127D0A031DF910B122582007
:1012C000840A8D0A841D41297817441B7816FC086E
:1012D0000319781E78134408F91D7629781F73299D
:1012E000031D7629781308308D0239290313781BE2
:1012F0007D290430F91C791800307A19EF006F0647
:101300004739031DF8127A1942220800EF1C6F18A2
:10131000F0176F1BF0170317781703108D008D0D52
:101320008D0D8D0D7030840000088C008B1383169A
:101330000C1555308D00AA308D008C148C189E2908
:101340000C118B170C1483120C080002031D781368
:10135000840A8D0A841D9429031343306F05031DED
:10136000F0130800FA012030A700270332212703D9
:10137000F91CBD29EB007A14C329E900FA15781F7E
:10138000C329EA00FA14A70BB5290800A7017A11AE
:101390002708A71A08003221F81A0800A70AC82946
:1013A0001D30CB207D14E7207920781C08001E30EA
:1013B000CB20C720FD1BDE29A61408007920781C4D
:1013C0000800D230CB207430CB2001302721772089
:1013D000B430CB20C720FD1B012A7920781C0800DF
:1013E000F030CB20C720C7207810FD0DFD06FD1F73
:1013F0000800A615FD0DE720C720FD1B181778145F
:1014000008007920781C0800CC30CB20AA30CB20F3
:101410000030CB200030CB20CA209C3C031D1A2A70
:1014200079203530CB20CA202617FF3C031DA60E9D
:10143000083027297920781C0800D130CB207D1472
:10144000E7207920781C0800B530CB20C720FD1B91
:10145000322A7920781C0800D130CB207D10E7207B
:10146000261408007920781C08004130CB20C720C2
:10147000FD1B402AC720FD1BA616FD1F26160800CF
:10148000A61708006F30452A2F3084007915000810
:10149000FE00403084067E088002031D7911800022
:1014A00040308406840A841D472A0800272008301B
:1014B000C700471CC718642A31304719013E840011
:1014C0000008FD00EF1AFD094708EF1A013EE03E53
:1014D0008400840C03307D05C200FD0CFD0CFE0170
:1014E0000314FE0CC20A421D712A471CFE0E7E0820
:1014F0008007C70B592A0730EF1A083CF00708008D
:1015000027200430C700343084000009FD0004089F
:10151000A43C8400C201FD0D800CC20A421CC2180A
:101520008B2A840AC21D8B2A0408A53C8400C70BA1
:10153000852AF40EF030F4040B30F004080078151E
:10154000FC013330CB2070308400CA2004128000AC
:1015500004160002031D78115820840A841DA52A50
:101560000800773004020319080070300402031DDC
:10157000C22A7D03031D4410031DC4107D08031DF2
:1015800044130800041DCE2A7D08031DC4107430C6
:1015900004020319CE2A7D08031D44100418841C7C
:1015A000D32A7D0BC4108418041DD92A7D08031D7D
:1015B00044130730C2007D08FE00FE0D7E06C20BFC
:1015C000DD2A8039031D44100800F80183166030BD
:1015D0008F009B0103178C018301B22169087918E0
:1015E0006A087A153221781BF814051FF815933014
:1015F0008500860183165F3081002C30850006301F
:1016000086004A110C148312383084008001840A49
:10161000041F062BFC013F17FB15C6013630840260
:101620001014C0308B0014302721303014200230C9
:1016300027213030142014300F213030142008308E
:101640000F2120301420D83081000B1128300320C6
:101650000C30032006300320013006200230062023
:10166000BD150330062004300620BD114A15CB01FC
:101670008A1102218A15FD00CB0A0319CC0A5820D1
:101680004B1A4C1D38237C08FD0080302721142183
:10169000BC0BBC0F482B4A0D8005982B10305220F4
:1016A0008A115B2F4F300620DF01791CDF0A3D15C0
:1016B00013305F0706207030BC05BC19702BBC1CB2
:1016C000632B5F10582B3C1D672B5F14582B3C1C61
:1016D0005D2B8A114B2779105F18702B79146F11CD
:1016E000BD10EF171030F81C6F1911305220031085
:1016F0003E0CDF00B901B90D1630DD000830DE0008
:10170000F81DDE0A3D178A11FD263D13390C5F0DC9
:10171000BE000B308A005F088207982B352E4E2BB7
:10172000D72D742E1D2CCF2E522B8B138A111628D9
:10173000EF132030A700F8189F2B6F1DAB2BC6218D
:10174000113052200920F91705306F070620F913D0
:10175000270A2E20B02B103052201E200A300620DF
:10176000C501BD18C503BD107030BC053C1CBA2BAB
:10177000BD141D2CBC19702B06303C05031DFA1D31
:10178000DB2B791CC52BFA1CDB2BA71ACD2BF818E9
:10179000CB2B6F1DCF2B3C19A70ABC18A7031F30FA
:1017A000A7057A1527083221F8106F19A02B781F8A
:1017B000CB2BF814A02BC5080319E22B01302721ED
:1017C000C50BB62B9F20781CEA2B1020F818F32BA2
:1017D0001E200D2C9620781CB62BA820F81C791CF6
:1017E000F32B09200D2C0B30062009206F0A03393A
:1017F000C500133052206F0A033945023430031DEF
:101800002721031946201130522046302721C50BCD
:10181000F92B4222C6212621112C103052200C30E7
:101820000620503027210D207818E52B79207818D4
:10183000ED2BF81C6F19A32BAD2B7030BC05A60146
:10184000C4011813EF17133052202B3006202C3010
:1018500006203C1EBD1C302CF81C6F19872CAB2BAE
:10186000BD18362C0F303C05031D702B9F20781CB3
:10187000412C8A11FC25F5258A15C4080319292C49
:10188000472C9620781C292CD021781C292C01303B
:10189000BD1C033EC5001F302605031D5D2C3430E2
:1018A00006203630261B373044183830C4183930FB
:1018B000A61A3A3006209130712C41300620260CB1
:1018C0000739423E261A08300620CA30032041302C
:1018D000181B00209130261A712C050893391038F6
:1018E000033A850064302721C50B6D2CC50ABD1C49
:1018F000C50A851C6D2C0D20781C7920781C1D2CA8
:10190000BD183C1A6D2CF81C6F19872C6D2C70308B
:10191000BC05A61A2616A612A6080319CA2C261F4D
:10192000A61BB62C6F1F261E9A2C5230062056304E
:101930000620BA2C7920781CCA2C1030261E522082
:10194000260C0F39263E06208E3003204130181B0E
:1019500000201E20C030032070308400261CA618F2
:10196000712D2619922DA619422D7C2D413006206D
:10197000083006209130C02C050893391038033AFE
:10198000850064302721851CBC2C0D20781C792013
:101990007818BC2C133052202B3006202C30062017
:1019A000A601C40118133C1C242DBD1C702BBD10B6
:1019B000303045226F1CE72C3108F4003208F30068
:1019C0003308F2003408F1006F10EF15222DEF1DDF
:1019D000F12C6F1EEF1E212DF109F209F3016F1694
:1019E000222DEF1E0B2D713084000230FE00000C02
:1019F000800E001200180016800CFE0BF72C8009D8
:101A0000840A041CF52CF3016F1EE52C0F30F2053F
:101A1000F3176F12222D6F1E102DEF165622222D56
:101A2000EF1C982B7208F039D03CF21B7216031D84
:101A3000F21A7215F2197214F2187117EF106F166C
:101A4000222D44226620982B0E303C05031D702B5E
:101A50009F20781C3C2D103052202A3006205B300D
:101A6000062000308A00B626013C0319FD1BB62C67
:101A7000ED21781CB62C872C96207818D021781C64
:101A8000D02C872CEF1856226F188022C130CB2023
:101A90007D14E7200B21C530CB20F520EF1C6F18FB
:101AA000562DC130CB207D10E720AB2D9F22442244
:101AB000781DAE2D0B2105306F0706206F08CC3C3A
:101AC000CB207D14E7200E30272179206430272198
:101AD0000D20781CAE2D10204422F814791DAE2D57
:101AE000B12DD530CB20F520D130261C1D30CB2098
:101AF0002608FD00E720AB2D5730CB200008CB2077
:101B0000840A841D7E2D0519832D1030522010303B
:101B1000A900FF30002006302721A90B892D051DC3
:101B20008F2DAB2D3C30CB200030CB200030CB2094
:101B30000008CB20CA2082300F21C7201430272173
:101B4000CA200002031DAE2DFF300020FF30002010
:101B5000840A841D982D78157920781C78117819BD
:101B60009F222F30781DBB2D12305220462000308E
:101B70000F214620293006201E30FE001230522050
:101B80000A3027211030FE0B781D52200F302721FC
:101B90007E08031DBE2D0D20781C7920781CD22DC7
:101BA0002621CB2DBD18982B781DDA2E702BF81816
:101BB000DB2D6F1D382E6F08EE007030840000089A
:101BC000041280000416840A0418841DDF2DBD163B
:101BD000113052200A3006203D1409203D100F30EC
:101BE0003C05031DC02E9F20781CFB2D1020F818EB
:101BF000042E1E20282E9620781CEF2DA820F81CDD
:101C0000791C042E0920282E092070308400000839
:101C100004120002031D1B2E0416840A841D072EC5
:101C20006E086F064739031D1B2E32300620133015
:101C3000522046201D2E33300620262111305220FE
:101C4000803027210D20781C7920781CE82D202E4B
:101C5000103052200C300620283027210D20781813
:101C6000F62D79207818FE2DE82DF81C6F193D2EE1
:101C70004B3006204C300620712EA71A462E3030ED
:101C8000062031300620270A2E20712E7A184D2E7C
:101C90004730062048300620712E70308400000A3C
:101CA000031D5A2E840A841D4F2E593006205A30A7
:101CB0000620712E3B30062009200E303C05031D06
:101CC000702B3C1C5D2E6B088621781B6A2E5530CC
:101CD0000620712E3C300620A7126B0A2E20B2215E
:101CE000C62126212621702BFA197B2E4930062089
:101CF0004A300620712E6F08EE0070308400000814
:101D0000041280000416840A0418841D7F2EBD1658
:101D10003E3006206908A7007A153221270A2E20B6
:101D20000920BC19C02E3C1D972EA70A9A2EBC1C58
:101D3000A32EA7031F30A70527083221F918932ED9
:101D40007030BC058E2E3C1C912E7030BC053F308F
:101D500006200E303C05031DC02E3C1CA92E703001
:101D60008400FF308000840A841DB22E1E202708C4
:101D700086214030781F55300620B22126212621A9
:101D80006E08EF0060308400000804168000041222
:101D9000840A0418841DC42EBD12C621702BDF01D5
:101DA000B9010E30DD000530DE008A11FD26BD1FB1
:101DB000702BDF030A300620513006205F0C5F06CF
:101DC0000239EC00113852207030BC05BC19702B60
:101DD00007303C050319F32E1030F81C6F19113031
:101DE0005220DF0AD12E9F2078189B2F9620781C36
:101DF000E62E5F0C03178D018D0C03137811DF1C89
:101E0000182F5F1D942FCC30CB20AA30CB20003070
:101E1000CB200030CB20CA209C3C031D9B2FCA2026
:101E2000803903178D00031379200730781C602F49
:101E300010305220CC30CB20F030CB200030CB20E3
:101E40000030CB20CA208D3C031D9B2F5330062031
:101E50001E20C0300320C701FC01CA208B130317CA
:101E60008C0083160C1555308D00AA308D008C1413
:101E70000C11831203138B175820CA20470307390C
:101E8000FF3003190020C70A03170C0883168C18AB
:101E9000472F0C1483128D0A0C0203135530031DB7
:101EA000602F7D08C71F2E2F58207C080C30031D83
:101EB000602F1230522046201030522078155430B6
:101EC000062026218030262179207818622FB22121
:101ED000F81C6F19722F690879186A087A1532216F
:101EE000781BF814C621781DDA2E702BFE007810AE
:101EF000CC30CB205530CB200030CB200030CB2055
:101F00004E30FC007E08CB207E085820CA207C0280
:101F1000031D080078300F21C72014302721CA2064
:101F20007E0203197814080003170F300D04031301
:101F300076277818BA2F5230062056300620053002
:101F4000EC1C0430C5009230A92F050893391038D5
:101F5000033A850064302721C50BA52FC5146C08F2
:101F600005060239031DA52F7920781C0D2078184D
:101F7000A52FDA2E10305220283006201E20C03027
:101F800003207920781CB12DCC30CB200F30CB2012
:101F90000030CB200030CB205F30FC00C70183161F
:101FA00003170C1483120C08FD0058200C080313AF
:101FB000CB20CA207C02031DB12D78300F21C72011
:101FC00014302721CA2003178D0A0C020313031DA6
:101FD000B12D47030739FF3003190020BA01470A22
:101FE000C700FC00C71FCF2F7920781CB12D031725
:0E1FF0000D0380390313762778187815B12D6C
:084000000000060002000300AD
:02400E00143F5D
:02401000FC3F73
:00000001FF
