:020000040000FA
:100000000130F9008A15E12AAA00030E8301CA0013
:10001000CA0E0A08DB008A018C016400BA0F362878
:10002000BB0A12303B02F81D031D36281010BD1EFE
:1000300025286E08EF006030840000080416800058
:100040000412840A0418841D1D285030850086017E
:100050008316860163000630860083128A15851D8B
:10006000EE2A8618061DEE2A8A1128283A0DC800A5
:100070003B0DC900C80DC90DC80DC90D4A0DFB00C7
:1000800006090639AD00031D48281130BC05632858
:100090003C103C1E3C1B6328063C031D5428593071
:1000A000BC054830BC046328BC1A5B28F730AE009E
:1000B00020302D07BC04AE0A03302E02031D632836
:1000C0002D08BC04AE01851D68286E30BC056D2866
:1000D0007130BC0511300319BC0403197228BB012F
:1000E000BA019E2538306F05031DEF1B7D280508DA
:1000F00092391138C61DFE398500C60A0508AD00C3
:10010000AD1A9428F81B8728AD1D9928F8170339D4
:100110001038C618461D8038850003304902031880
:100120003A1E9928AA2599280339903885003A1E45
:100130009E2503303A0503193D1DA82802304902C7
:100140000C303A050318031DA728DE20A828E2205A
:100150005F080000063C03193D1FC728C50BC728D0
:100160000530C500C530391C853042250430CC002F
:100170000A30FE000F30CB0510305F19103ECB0463
:1001800002214B25CB0AFE0BBA280930CB028A1577
:100190002F2183015B088A004A088300AA0E2A0ED9
:1001A000090082071434033414340134283402342F
:1001B000143401342834013428341F340230A500AB
:1001C0000830E5280130A5001030A4004030422559
:1001D0001030CD0000308A004D030C398207380CF6
:1001E0003805B800FE28380D2504B800FE28380D63
:1001F0003805B800FE28380C2404B8004B25CD0B78
:10020000EC28080001304C078A000A304B0703181D
:100210008A0A82002C3452344534433454344F34E7
:10022000203443346F34703469346534723480342C
:10023000763465347234733469346F346E342034F8
:1002400036342E3432343334203465346E346734EB
:100250003A3443346834613472346734653420345A
:10026000743468346534C83462346134743474343A
:100270006534723479342134383420344434613470
:100280006C346C34613473342034293420344D346C
:100290006534743461346B346F346D3420343834E5
:1002A0002034433479346634723461346C3420340D
:1002B000AC346E346F347434203464346534663452
:1002C00069346E346534643421340C34203457344A
:1002D00072346F346E346734203463347234633470
:1002E000213420343A3449346E34733465347234F2
:1002F000743420346B34653479342B344B346534A6
:100300007934203469347334203472346534613480
:1003100064341E34523465346134643469346E3468
:10032000673420346534723472346F34723421345B
:10033000543420344D3432342034D9346C346F3456
:100340006134643420346134753474346F34D93496
:100350006C346F3461346434203431342D343134AE
:100360003634DA346C346F346134643420343134EC
:1003700037342D3433343234D934733461347634F1
:100380006534203431342D3431343634DA34733436
:100390006134763465342034313437342D34333499
:1003A0003234C83400346F346E34013420346F3446
:1003B00066346634C8346F346E34203400346F349D
:1003C00066346634013454342034433432342034B7
:1003D000DA3472346534613464342F3477347234EF
:1003E000693474346534D8347334613476346534A4
:1003F00020346B3465347934DA346B3465347934D1
:100400002D3465346434693474346F347234D734C1
:1004100063346F346D347034613472346534DA347B
:10042000643465346C3465347434653420346B342E
:1004300065347934D8347434653473347434203486
:1004400072342F347734DA346534783470346F345E
:10045000723474342F3469346D347034D834633466
:10046000723463342D346D346F3464346534D9346C
:1004700070346F3477346534723420346F346634BA
:10048000663480340034443461346C346C34613408
:100490007334013420344D346534743461346B3436
:1004A0006F346D348034443461346C346C34613472
:1004B0007334203400344D346534743461346B3417
:1004C0006F346D3401348F340034443461346C340F
:1004D0006C346134733401342034433479346634F9
:1004E000723461346C349F34443461346C346C3411
:1004F00061347334203400344334793466347234D4
:1005000061346C3401349D340034443461346C34CF
:100510006C346134733401342034523446344934F9
:100520004434AD34443461346C346C3461347334E9
:10053000203400345234463449344434013437349E
:1005400020344334433444343234303420341D3482
:100550005734723469347434653420345234573427
:100560002D3431343934393430340F345734723413
:100570006934743465342034523457342D34313472
:100580003934393430342E3432341D3457347234E3
:10059000693474346534203454344D342D34323459
:1005A0003034303434341E34573472346934743453
:1005B0006534203463346F346D3470346C34653496
:1005C000743465342B34573472346934743465347C
:1005D000203454344D342D3430343134563449348D
:1005E0006E347334653472347434D63452345734C0
:1005F0002D346B34653479344634203454344334E8
:100600003034313420342B345734723469347434F8
:1006100065342034543435343534353437341E346D
:10062000573472346934743469346E346734203426
:100630006534723472346F34723421341B34543460
:1006400068346934733420346B346534793420343D
:10065000693473348F3461346C347234653461348A
:1006600064347934203465347834693473347434C0
:100670007334213456344D34613474346334683403
:1006800021343A344E346F34743420346D34613450
:10069000743463346834213463344B3465347934CE
:1006A00054342034433433342034AB344434613450
:1006B0006C346C34613473342D343134393439341E
:1006C0003034C73454344D342D3432343034303433
:1006D00033349F344D346534743461346B346F3447
:1006E0006D34203454344D342D343234303430347D
:1006F00032349E34433479346634723461346C3429
:100700002034443443342D343234303430343034B3
:10071000C83445346D342D344D3461347234693409
:100720006E341D345334613476346534203474347B
:100730006834653420346B34653479343F340D3497
:100740004B34653479342034693473342034733451
:1007500061347634653464343A3438342034533474
:100760006534633472346534743420340D34533456
:1007700065346C346534633474342034613420342B
:100780006B34653479343A342B34443465346C3406
:1007900065347434653420346B34653479343F34D3
:1007A0001E344B3465347934203469347334203446
:1007B000643465346C34653474346534643447347B
:1007C00052342F3457342D346B3465347934C73474
:1007D000523457342D343134393439343034B93417
:1007E000523457342D3431343934393430342E3492
:1007F0003234C73454344D342D3432343034303400
:100800003434463420345234463449344434203469
:10081000D53454344D342D34303431341F344334D2
:1008200061346E3427347434203473346134763454
:10083000653420346B34653479343A349F3445342C
:100840004534503452344F344D3420346934733489
:100850002034663475346C346C34213447344E346F
:100860006F3420346B346534793473349F34693495
:100870006E34203445344534503452344F344D3482
:100880002034623461347334653421345734503445
:100890006C3465346134733465342C34BB34723455
:1008A0006534613464342034613420346B3465340D
:1008B000793421340134563403347834783456345E
:1008C0002C344334523443342D3463346F346E3417
:1008D000743472346F346C343A34573446346F3471
:1008E00072346D34613474343A34AC3454344D342D
:1008F0002D3432343034303434342F3432343034D4
:1009000030343334393449346E3463346F347234B0
:100910007234653463347434393452346534613438
:100920006434203462346134733465341D34523499
:10093000653461346434203463346F346D3470341E
:100940006C346534743465341D3445344534503466
:1009500052344F344D3420346534723472346F3431
:1009600072342134AC34523457342D346B34653402
:1009700079342034743479347034653421342C342F
:1009800043346F34723472346534633474342034D5
:100990006334723463343F342C344334523443343C
:1009A00020346934733420346634693478346534DF
:1009B00064340F3453346134763469346E346734BC
:1009C0002034743468346934733420346B346534BF
:1009D00079349D3469347334203469346D3470341F
:1009E0006F3473347334693462346C346534BA34BC
:1009F000653472346134733469346E3467342E3440
:100A00002E342E342C3457347234693474346534B3
:100A1000203454344D342D3430343134413439346D
:100A200052346534613464342D346F346E346C3434
:100A30007934373472346534613464342F34773424
:100A400072346934743465342E342E342E342E349A
:100A50002E342E346534783470346F3472347434F8
:100A60002F3469346D3470346F34723474342E34EE
:100A70002E342E3470308400FF308000840A841DB0
:100A80003C2D0800A1014D2D800E0F300005093CC2
:100A9000031CF93E393CA101A115A10AA0000B1DC0
:100AA0004F2D5825200E5825D83081000B110800F5
:100AB000F03921078600FE3986000800A100CB012D
:100AC000CC01662D013ECB070318CC0A0221A00001
:100AD0000F3903191030A300A10B622D200E073926
:100AE000A200200C3F05803EBD19103E4225F0308B
:100AF000C700A207033047072D30031CF91F203021
:100B0000A000220847022008031C8E2DA308031909
:100B10008E2DCB0A0319CC0A0221A3034B25C70F44
:100B20007A2D0800C030422577303D1867308400A8
:100B3000442544258403841D982D08003D1E08008B
:100B40003D127030BC051030CE001C304225CE0B5B
:100B5000A52D08003D1A08003D161030CE001830B3
:100B60004225CE0BAF2D08008C1079128C1808008E
:100B70009F1FB62D110A91018C1808009F1BBC2DD8
:100B80008316791B05118312110211089101FD0DC5
:100B9000791608008B137810F9127913053092003A
:100BA0002A309F00831680309F0083120830C200D5
:100BB0009101B425791EDE2DC20BD92D83161F0895
:100BC0009F0A9F191F1DE92D9F1CE92DF91EF92D64
:100BD000F12D791EEF2DF91EFF00F916D52DF91E06
:100BE000D52DFE007F08FE027E0C7F397F079F0017
:100BF000781483169F13831207309F001211090087
:100C00008B1383169F1783120A309F001215C4019D
:100C1000C4183B2E9F129101B4250310C001031884
:100C2000162E02304007C1002330C200B425791EC1
:100C3000F92DC0004102C20B0F2E441808000430E9
:100C4000C30054308400FD01FB30A9000830A9071F
:100C5000B425791EF92DA90B282E7D094319332EB1
:100C60008002031D3B2E80008403041D262EC30B2F
:100C7000212E441408009F164630C200FF30FD00AC
:100C8000B425C203031D791EF92D0F30FD057D0B20
:100C9000402EC41808000430C300573084000930C7
:100CA000C7000430A900FD01B425791EF92DA90B58
:100CB000542E7D0E43195F2E8002031DF92D8000F6
:100CC0008403C70B512EC30B4D2EC4140800F8101B
:100CD000EF010026F925440803190800EF008A15E2
:100CE00027208A11503084006F18962E10304F0242
:100CF000031D08000008903E03198A2EC03E031908
:100D0000892EE03E0319882EF03E031D0800403E68
:100D1000403E403E0310F20CF10CF20CF10CF207D5
:100D2000840A841D7A2E0130F300B12EFA30540269
:100D3000031D08000730A9000008FD00FD0C7D061A
:100D4000A90B9E2E0139041C8418A82E80060315B9
:100D5000031D08000008840A841680008412041D04
:100D60009A2E0130F000F8148A15662800264408EF
:100D70000319E72E3830A900FF010C30FE007E0376
:100D8000FE00D120C3000330C41C431E0030C30743
:100D90009101430303197917B4257913791EE72EBE
:100DA000C30BC92E7E03D1207F078A150F2183161E
:100DB000051583122F218A11FE0BBF2E0826791EDE
:100DC000EA2EA91C291CE52EFF03A90BBD2EF9252F
:100DD0008A1500348A15233027217720CB30441C14
:100DE000CA30CB207D10E7207720781C0034B43047
:100DF000441CB630CB20C7200134BD13BA013D15C9
:100E00007030BC058B13E22039085F02FF005D07DC
:100E10003F135E2582304225313030273F177F0A4D
:100E20005D075E25C230422532303027B908803058
:100E3000031D403EFE00422500304B257E080F3E3C
:100E4000422501304B25CB010F30C5008B17BC1D4F
:100E5000342F7030BC053D11DF01B9018A1508003F
:100E60007F074B252E304B2DBC1C392FDF03B903D8
:100E70003D2F3C1D492FDF0AB90AB9030030B91FC5
:100E8000013EB9005F085E020319DF03031CDF0A9D
:100E9000002F3C1C272F3D118B13DE208B173C1895
:100EA0004F2F8B13E2208B1728308A1527217030A3
:100EB000BC05BD1708006F08EE0070308400000804
:100EC000041280000416840A0418841D5F2FBD16C6
:100ED0000230791C0030DC00013079054D3E5E2582
:100EE000F81C6F19772F8A152720F00A66208A11BF
:100EF000922580305C0442253C1D8D2F3C11203012
:100F00004B25DC0A0230791C00305C1ADC00803092
:100F10005C04422556304B25792FBC1CA32FBC10F6
:100F20005C0C0739073C703E84005C18800E103062
:100F300080075C18800E791C772F8A1566208A112D
:100F4000781E732F772FBC1DA72F8A15B72E3C1C38
:100F50007C2F3C104330C400FC01781270308400B8
:100F60000008FD00031D78168A15AD2258208A114D
:100F7000840A841DB02FF8107C080319D32F573032
:100F80005E250430BC1DC62F8A15B72EBC1C3C192B
:100F9000F22F3C1CC22F8A156620092058300620EB
:100FA000262126218A11781E441BF8144408781E35
:100FB00004300319F22F50305E253D15DF011F303C
:100FC000C4182130441B23305F075E257030BC05F8
:100FD000BC1DEC2F8A15B72E3C1CF82F4B2744085C
:100FE0005F1C0030EF00BD128A153E22C221672B24
:100FF000BC1CFC2F5F10DF2F3C1DE82F5F14DF2F80
:101000008A114B252E2F8A1142252E2F8A115E25FB
:101010002E2F8A1192258A1508008A11CA252E2F93
:101020008A1167268A15080001388600FE39860075
:1010300008008B138A119E258A150900C0300320F1
:101040001030FE002D300020FE0B222808007030EA
:1010500084008001840A841D29280800FE01FD0007
:10106000F6307D07FE0A03182F28FE037E0EFD07CB
:101070008E3003200230C700FD0E0F307D05303E5C
:10108000A71A78300020C70B3C2808008B13FE01FC
:10109000050883397E189038850064300F21FE0BD7
:1010A00048280900A8000508903928048500080090
:1010B0000830DA007D087C06D900590C1830031876
:1010C000FC06FC0CFD0CDA0B5A280800703084007A
:1010D0000730C700FC0178120008FD00031D7816D8
:1010E0005820840AC70B6C287C08800008007816FA
:1010F0007A28781278108B13051D090083160511C4
:1011000096300F210515781E8C2800000000000085
:1011100005110B300F21051583120D300F21051D10
:10112000781464300F21051D781009007920781C8F
:101130000800BA01BB0119201430272179280D209D
:10114000781C0800BA01BB011920143027210D2892
:101150003330CB2070308400EF01F8147812FC019A
:10116000CA2080008008031D78165820840A841D38
:10117000B028CA20413C03196F17FC08031DC3287F
:10118000781E6F1B0800F810791C6F1508007D147D
:101190000130CD28FF30FD000830A9008B138316E5
:1011A0000511D228D3287D180515FD0C8312D828E7
:1011B000D928FD130519FD1708300F2183160515D1
:1011C000831204300F21A90BCF287D0809008B134F
:1011D00083160511EB28EC287D1805150A300F2120
:1011E00005158312023027210900703084000008A1
:1011F000FD002618FD090830A900E720FD0C053088
:101200002902FF3003190020A90BFD28FF30002020
:10121000840A841DF7287920781CA52D0800A800D1
:101220001129A80B102908008B138316051196307D
:101230000F210515FB1D25290D300F218312051DDA
:10124000781464300F21051D78108B170030AC0026
:1012500000300F2100300F21AC0B2829080001308D
:101260000F2108008316781703109B009B0D9B0D20
:101270009B0DFC01F8167812C401F911F9147030B5
:1012800084001C141A08781F50297813813C031914
:101290004C29013C031D50294330C4009A13F91511
:1012A0001A08031D7816FD007A1980000002031D3C
:1012B000F8127D0A031DF910AD225820840A9B0AFA
:1012C000841D41297817441B7816FC080319781EE1
:1012D00078134408F91D7429781F7129031D742996
:1012E000781308309B0239298312781B7B2904303C
:1012F000F91C791800307A19EF006F064739031D81
:10130000F8127A193E220800EF1C6F18F0176F1BB5
:10131000F0178316781703109B009B0D9B0D9B0DF8
:101320007030840000089A008B131C1555309D0006
:10133000AA309D009C149C189B291C118B171C140F
:101340001A080002031D7813840A9B0A841D92293F
:10135000831243306F05031DF0130800FA0120309B
:10136000A700270332212703F91CB929EB007A14BF
:10137000BF29E900FA15781FBF29EA00FA14A70B64
:10138000B1290800A7017A112708A71A08003221FD
:10139000F81A0800A70AC4291D30CB207D14E720C5
:1013A0007920781C08001E30CB20C720FD1BDA29CD
:1013B000A61408007920781C0800D230CB207430A5
:1013C000CB20013027217720B430CB20C720FD1B54
:1013D000FD297920781C0800F030CB20C720C720D9
:1013E0007810FD0DFD06FD1F0800A615FD0DE72078
:1013F000C720FD1B1817781408007920781C0800F6
:10140000CC30CB20AA30CB200030CB200030CB20FA
:10141000CA209C3C031D162A79203530CB20CA20D7
:101420002617FF3C031DA60E083027297920781CBB
:101430000800D130CB207D14E7207920781C0800EB
:10144000B530CB20C720FD1B2E2A7920781C080040
:10145000D130CB207D10E720261408007920781C9D
:1014600008004130CB20C720FD1B3C2AC720FD1BB4
:10147000A616FD1F26160800A61708006F30412A81
:101480002F30840079150008FE00403084067E0865
:101490008002031D7911800040308406840A841D77
:1014A000432A080027200830C700471CC718602AB5
:1014B00031304719013E84000008FD00EF1AFD0994
:1014C0004708EF1A013EE03E8400840C03307D059E
:1014D000C200FD0CFD0CFE010314FE0CC20A421DED
:1014E0006D2A471CFE0E7E088007C70B552A073061
:1014F000EF1A083CF007080027200430C7003430FA
:1015000084000009FD000408A43C8400C201FD0D14
:10151000800CC20A421CC218872A840AC21D872A6C
:101520000408A53C8400C70B812AF40EF030F404B3
:101530000B30F00408007815FC013330CB207030FC
:101540008400CA200412800004160002031D7811D2
:101550005820840A841DA12A080077300402031948
:10156000080070300402031DBE2A7D03031D4410D1
:10157000031DC4107D08031D44130800041DCA2A5E
:101580007D08031DC410743004020319CA2A7D08A3
:10159000031D44100418841CCF2A7D0BC41084182A
:1015A000041DD52A7D08031D44130730C2007D08A1
:1015B000FE00FE0D7E06C20BD92A8039031D4410A1
:1015C0000800F80107309F00AE21690879186A0801
:1015D0007A153221781BF814051FF8159330850011
:1015E000860183165F3081002C308500063086002E
:1015F0004A110C148312383084008001840A041FBD
:10160000FD2AFC013F17FB15C60136308402101479
:10161000C0308B00143027213030142002302721B5
:101620003030142014300F213030142008300F21B6
:1016300020301420D83081000B11283003200C30CA
:101640000320063003200130062002300620BD159D
:101650000330062004300620BD114A15CB018A1143
:1016600002218A15FD00CB0A0319CC0A58204B1A17
:101670004C1D2F237C08FD00803027211421BC0B3A
:10168000BC0F3F2B4A0D80058F2B103052208A1142
:101690005B2F4F300620DF01791CDF0A3D15133028
:1016A0005F0706207030BC05BC19672BBC1C5A2B89
:1016B0005F104F2B3C1D5E2B5F144F2B3C1C542B9B
:1016C0008A114B2779105F18672B79146F11BD10A1
:1016D000EF171030F81C6F191130522003103E0C18
:1016E000DF00B901B90D1630DD000830DE00F81D4D
:1016F000DE0A3D178A11FD263D13390C5F0DBE0031
:101700000B308A005F0882078F2B2C2E452BCE2DA5
:101710006B2E142CC62E492B8B138A111628EF130F
:101720002030A700F818962B6F1DA22BC221113074
:1017300052200920F91705306F070620F913270AF0
:101740002E20A72B103052201E200A300620C50163
:10175000BD18C503BD107030BC053C1CB12BBD14B9
:10176000142CBC19672B06303C05031DFA1DD22B27
:10177000791CBC2BFA1CD22BA71AC42BF818C22B2D
:101780006F1DC62B3C19A70ABC18A7031F30A7055D
:101790007A1527083221F8106F19972B781FC22B62
:1017A000F814972BC5080319D92B01302721C50B35
:1017B000AD2B9F20781CE12B1020F818EA2B1E205F
:1017C000042C9620781CAD2BA820F81C791CEA2B41
:1017D0000920042C0B30062009206F0A0339C500AC
:1017E000133052206F0A033945023430031D27217C
:1017F000031946201130522046302721C50BF02B0B
:101800003E22C2212621082C103052200C30062006
:10181000503027210D207818DC2B79207818E42B04
:10182000F81C6F199A2BA42B7030BC05A601C401BB
:101830001813EF17133052202B3006202C300620BF
:101840003C1EBD1C272CF81C6F197E2CA22BBD182A
:101850002D2C0F303C05031D672B9F20781C382C46
:101860008A110026F9258A15C4080319202C3E2C5C
:101870009620781C202CCC21781C202C0130BD1CFB
:10188000033EC5001F302605031D542C34300620AE
:101890003630261B373044183830C4183930A61A71
:1018A0003A3006209130682C41300620260C07394A
:1018B000423E261A08300620CA3003204130181B49
:1018C00000209130261A682C050893391038033A05
:1018D000850064302721C50B642CC50ABD1CC50AD0
:1018E000851C642C0D20781C7920781C142CBD18C4
:1018F0003C1A642CF81C6F197E2C642C7030BC05CB
:10190000A61A2616A612A6080319C12C261FA61B66
:10191000AD2C6F1F261E912C52300620563006200B
:10192000B12C7920781CC12C1030261E5220260C98
:101930000F39263E06208D3003204130181B002031
:101940001E20C030032070308400261CA618682D8D
:101950002619892DA619392D732D413006200830FE
:1019600006209130B72C050893391038033A8500CA
:1019700064302721851CB32C0D20781C7920781821
:10198000B32C133052202B3006202C300620A60119
:10199000C40118133C1C1B2DBD1C672BBD1030301F
:1019A00041226F1CDE2C3108F4003208F3003308AA
:1019B000F2003408F1006F10EF15192DEF1DE82C1F
:1019C0006F1EEF1E182DF109F209F3016F16192D84
:1019D000EF1E022D713084000230FE00000C800EDC
:1019E000001200180016800CFE0BEE2C8009840AF1
:1019F000041CEC2CF3016F1EDC2C0F30F205F317E6
:101A00006F12192D6F1E072DEF165222192DEF1C84
:101A10008F2B7208F039D03CF21B7216031DF21A9C
:101A20007215F2197214F2187117EF106F16192D42
:101A3000402266208F2B0E303C05031D672B9F2014
:101A4000781C332D103052202A3006205B300620BF
:101A500000308A00B626013C0319FD1BAD2CE9219C
:101A6000781CAD2C7E2C96207818CC21781CC72CA5
:101A70007E2CEF1852226F187C22C130CB207D14AF
:101A8000E7200B21C530CB20F520EF1C6F184D2D22
:101A9000C130CB207D10E720A22D9B224022781D53
:101AA000A52D0B2105306F0706206F08CC3CCB20FD
:101AB0007D14E7200E3027217920643027210D2066
:101AC000781CA52D10204022F814791DA52DA82DD5
:101AD000D530CB20F520D130261C1D30CB20260858
:101AE000FD00E720A22D5730CB200008CB20840A30
:101AF000841D752D05197A2D103052201030A90043
:101B0000FF30002006302721A90B802D051D862DD2
:101B1000A22D3C30CB200030CB200030CB20000861
:101B2000CB20CA2082300F21C72014302721CA20A1
:101B30000002031DA52DFF300020FF300020840A85
:101B4000841D8F2D78157920781C781178199B22A7
:101B50002F30781DB22D12305220462000300F2138
:101B60004620293006201E30FE00123052200A3056
:101B700027211030FE0B781D52200F3027217E08C0
:101B8000031DB52D0D20781C7920781CC92D262128
:101B9000C22DBD188F2B781DD12E672BF818D22D92
:101BA0006F1D2F2E6F08EE007030840000080412A5
:101BB00080000416840A0418841DD62DBD16113029
:101BC00052200A3006203D1409203D100F303C05FC
:101BD000031DB72E9F20781CF22D1020F818FB2D26
:101BE0001E201F2E9620781CE62DA820F81C791C9C
:101BF000FB2D09201F2E09207030840000080412DC
:101C00000002031D122E0416840A841DFE2D6E0888
:101C10006F064739031D122E323006201330522032
:101C20004620142E333006202621113052208030D9
:101C300027210D20781C7920781CDF2D172E1030DD
:101C400052200C300620283027210D207818ED2D49
:101C500079207818F52DDF2DF81C6F19342E4B30B4
:101C600006204C300620682EA71A3D2E3030062064
:101C700031300620270A2E20682E7A18442E47304D
:101C8000062048300620682E70308400000A031DAC
:101C9000512E840A841D462E593006205A300620C3
:101CA000682E3B30062009200E303C05031D672BB3
:101CB0003C1C542E6B088421781B612E5530062065
:101CC000682E3C300620A7126B0A2E20AE21C221BE
:101CD00026212621672BFA19722E493006204A3018
:101CE0000620682E6F08EE00703084000008041291
:101CF00080000416840A0418841D762EBD163E301A
:101D000006206908A7007A153221270A2E2009200B
:101D1000BC19B72E3C1D8E2EA70A912EBC1C9A2EE4
:101D2000A7031F30A70527083221F9188A2E703023
:101D3000BC05852E3C1C882E7030BC053F3006202B
:101D40000E303C05031DB72E3C1CA02E70308400C5
:101D5000FF308000840A841DA92E1E2027088421BC
:101D60004030781F55300620AE21262126216E08EE
:101D7000EF00603084000008041680000412840A1A
:101D80000418841DBB2EBD12C221672BDF01B901CF
:101D90000E30DD000530DE008A11FD26BD1F672BE9
:101DA000DF030A300620513006205F0C5F0602393F
:101DB000EC00113852207030BC05BC19672B07307D
:101DC0003C050319EA2E1030F81C6F19113052200F
:101DD000DF0AC82E9F2078188E2F9620781CDD2EC3
:101DE0005F0C83169B019B0C83127811DF1C0F2F55
:101DF0005F1D872FCC30CB20AA30CB200030CB20EA
:101E00000030CB20CA209C3C031D8E2FCA20803975
:101E100083169B00831279200730781C532F1030D3
:101E20005220CC30CB20F030CB200030CB20003003
:101E3000CB20CA208D3C031D8E2F533006201E2040
:101E4000C0300320C701FC01CA208B1383169A00FF
:101E50001C1555309D00AA309D009C141C11831246
:101E60008B175820CA2047030739FF300319002079
:101E7000C70A83161A089C183B2F1C149B0A1A02C7
:101E800083125530031D532F7D08C71F252F58205F
:101E90007C080C30031D532F123052204620103086
:101EA00052207815543006202621803026217920B2
:101EB0007818552FAE21F81C6F19652F690879180D
:101EC0006A087A153221781BF814C221781DD12EA8
:101ED000672BFE007810CC30CB205530CB20003063
:101EE000CB200030CB204E30FC007E08CB207E087B
:101EF0005820CA207C02031D080078300F21C7201B
:101F000014302721CA207E02031978140800831692
:101F10000F301B04831269277818AD2F523006202A
:101F2000563006200530EC1C0430C50092309C2F42
:101F3000050893391038033A850064302721C50B12
:101F4000982FC5146C0805060239031D982F7920B7
:101F5000781C0D207818982FD12E10305220283060
:101F600006201E20C03003207920781CA82DCC30FC
:101F7000CB200F30CB200030CB200030CB205F3087
:101F8000FC00C70183161C141A08FD0058201A080B
:101F90008312CB20CA207C02031DA82D78300F218C
:101FA000C72014302721CA2083169B0A1A028312E5
:101FB000031DA82D47030739FF3003190020BA017C
:101FC000470AC700FC00C71FC22F7920781CA82D24
:101FD00083161B0380398312692778187815A82D7A
:084000000E000600020003009F
:02400E00143F5D
:00000001FF
