:020000040000FA
:1000000005309F008601BB29FE00030EFF0083160A
:100010007A1C061083128B1002300605B002B00065
:1000200003191C28FC01FB01FF30FA00831606149B
:100030008312B01CE629F329FB1C7B1924287F0EB0
:100040008300FE0E7E0E09008316061483128101C2
:100050000314FA0C01306F20060CAF0CAD0B5528C1
:100060007C1C4128FC0133302F020319FC147B1D3A
:10007000412841302F0203197C1557302F020319F4
:10008000FC15AD15AE0A2E0884000008FC18FA0015
:100090002F08FC1D4F2884038000AE19032A7C1D05
:1000A0005528FC30FA00FB19FA1406186B28011FBA
:1000B00055280830AD00FC017C146F30AE00FF30D5
:1000C000FA00061C612805306F20831606101730D1
:1000D0006F20061483128B10B01CED29FD29A0009F
:1000E00000000000A00B702808000030A1000030C4
:1000F0006F20A10B772808000830A7007D08330681
:10010000A600260C33080318183AA600260CB300E4
:100110000310FD0C7D08A70B7F28080070308400B9
:100120000730A800B3010008FD007C20840AA80B5A
:100130009328330880000800753084000130A40043
:100140000B30A3000530A200F0300005A406D0005B
:100150000130240583002218221DD00D0130030533
:10016000A406D70DD60DD50DD40DD30DD20DD10DBE
:10017000A20BAB28800E231C84032408F000A30BE1
:10018000A2280310D70DD60DD50DD40DD30DD20D49
:10019000D10DFF30D000D11708007B104030A500F2
:1001A000670C60308400800C840A841DD328670AA1
:1001B000031D0529E61C661C052975308400A40171
:1001C0000B30A300241808000530A200231880017A
:1001D000F03060058004800EA406231C8403E60D25
:1001E000E50DE40DE30DE20DE10DE00D0130030539
:1001F000A406A20BEF28A30BE2282410F601F001BD
:100200008E20240803197B140800A50BD0280800B1
:10021000603084007B10A5012910AC0106308100FC
:100220000B110830A2001F08AA06AA000B1908002B
:100230000319132901080F3EE039AB000311AA1F6F
:10024000A50A03190800A91480302B06031DA91064
:1002500040302B06031DA9182E290C290630A91C95
:10026000291C8100A91C132929142A0DFD0DA20B9C
:100270001329A215840A84117D08800680000319C1
:10028000A501003003192C0AAC002C1E13297B1485
:1002900008007B10A501783081000B111F08AA0609
:1002A000AA000B19080003194E29A50F4B297B142E
:1002B0000800FD0003307D05A20015113C306F20C1
:1002C0006929FD0003307D05A2006929FD00083081
:1002D000A20015154E30FD1F1C306F20151128305F
:1002E0006F20FD0DA20B6929151508007B10403009
:1002F000A500703084000008041200020416031DDB
:100300008629840A841D7B297B140800700DF70D53
:10031000F60DF50DF40DF30DF20DF10DF00DA50B2D
:100320007929080084000008F000F400840A00081D
:10033000F100F500840A0008F200F600840A0008C3
:10034000F300F700080084000430A50000086621CF
:10035000840AA50BA6290800B200823059218030FA
:100360004005013E61217030A3213208612108302F
:10037000762008000000831691308100C33086008B
:10038000073092009B0183120430950004309200E4
:100390000C309700FB01B001FF30FA0040308400C0
:1003A00083161C141A089B0A83128000840A841D79
:1003B000D029C8011430C9008030CA004030CB00B9
:1003C0004130F800FF30F90090308B008B17082186
:1003D0007B18CD207B1CE729FB148B1749217B1848
:1003E000EE29FB01E7298B1749217B1CF429082101
:1003F0007B18CD207B18FB157B158B1749217B18AB
:10040000FE29FB01F4298316061083129C20483034
:100410009221833059217030A321033061210830AB
:10042000762008217B1876217B1CC01A292A0230ED
:1004300059210830762048309221823059214430A9
:10044000A321013061217030A321033061210830E4
:100450007620023059210830762050309221233006
:10046000AC2102305921083076205430922143309B
:10047000AC21401F432A02305921083076204430F5
:100480009221E330AC21C01F401B472A532A02307F
:1004900059210830762048309221401F512A731686
:1004A00077160330AC210230592108307620B00194
:1004B000FC010130FB05FF30FA0008217B18CD203C
:0E04C0007B18FB148316061483128B10ED2993
:084000000F00000000000200A7
:02400E00103F61
:104200000000FF00FF00FF000100020003000400A7
:00000001FF
